{
	"test/dataTypes.sol": {
		"DataTypes": {
			"abi": [
				{
					"inputs": [],
					"name": "a",
					"outputs": [
						{
							"internalType": "bytes1",
							"name": "",
							"type": "bytes1"
						}
					],
					"stateMutability": "view",
					"type": "function"
				},
				{
					"inputs": [],
					"name": "addr",
					"outputs": [
						{
							"internalType": "address",
							"name": "",
							"type": "address"
						}
					],
					"stateMutability": "view",
					"type": "function"
				},
				{
					"inputs": [],
					"name": "b",
					"outputs": [
						{
							"internalType": "bytes1",
							"name": "",
							"type": "bytes1"
						}
					],
					"stateMutability": "view",
					"type": "function"
				},
				{
					"inputs": [],
					"name": "defaultaddress",
					"outputs": [
						{
							"internalType": "address",
							"name": "",
							"type": "address"
						}
					],
					"stateMutability": "view",
					"type": "function"
				},
				{
					"inputs": [],
					"name": "defaultbool",
					"outputs": [
						{
							"internalType": "bool",
							"name": "",
							"type": "bool"
						}
					],
					"stateMutability": "view",
					"type": "function"
				},
				{
					"inputs": [],
					"name": "defaultbytes",
					"outputs": [
						{
							"internalType": "bytes1",
							"name": "",
							"type": "bytes1"
						}
					],
					"stateMutability": "view",
					"type": "function"
				},
				{
					"inputs": [],
					"name": "defaultint",
					"outputs": [
						{
							"internalType": "int256",
							"name": "",
							"type": "int256"
						}
					],
					"stateMutability": "view",
					"type": "function"
				},
				{
					"inputs": [],
					"name": "hey",
					"outputs": [
						{
							"internalType": "bool",
							"name": "",
							"type": "bool"
						}
					],
					"stateMutability": "view",
					"type": "function"
				},
				{
					"inputs": [],
					"name": "hy",
					"outputs": [
						{
							"internalType": "address",
							"name": "",
							"type": "address"
						}
					],
					"stateMutability": "view",
					"type": "function"
				},
				{
					"inputs": [],
					"name": "i",
					"outputs": [
						{
							"internalType": "int256",
							"name": "",
							"type": "int256"
						}
					],
					"stateMutability": "view",
					"type": "function"
				},
				{
					"inputs": [],
					"name": "i256",
					"outputs": [
						{
							"internalType": "int256",
							"name": "",
							"type": "int256"
						}
					],
					"stateMutability": "view",
					"type": "function"
				},
				{
					"inputs": [],
					"name": "i8",
					"outputs": [
						{
							"internalType": "int8",
							"name": "",
							"type": "int8"
						}
					],
					"stateMutability": "view",
					"type": "function"
				},
				{
					"inputs": [],
					"name": "maxInt",
					"outputs": [
						{
							"internalType": "int256",
							"name": "",
							"type": "int256"
						}
					],
					"stateMutability": "view",
					"type": "function"
				},
				{
					"inputs": [],
					"name": "minInt",
					"outputs": [
						{
							"internalType": "int256",
							"name": "",
							"type": "int256"
						}
					],
					"stateMutability": "view",
					"type": "function"
				},
				{
					"inputs": [],
					"name": "no",
					"outputs": [
						{
							"internalType": "bool",
							"name": "",
							"type": "bool"
						}
					],
					"stateMutability": "view",
					"type": "function"
				},
				{
					"inputs": [],
					"name": "number",
					"outputs": [
						{
							"internalType": "uint256",
							"name": "",
							"type": "uint256"
						}
					],
					"stateMutability": "view",
					"type": "function"
				},
				{
					"inputs": [],
					"name": "u",
					"outputs": [
						{
							"internalType": "uint256",
							"name": "",
							"type": "uint256"
						}
					],
					"stateMutability": "view",
					"type": "function"
				},
				{
					"inputs": [],
					"name": "u256",
					"outputs": [
						{
							"internalType": "uint256",
							"name": "",
							"type": "uint256"
						}
					],
					"stateMutability": "view",
					"type": "function"
				},
				{
					"inputs": [],
					"name": "u8",
					"outputs": [
						{
							"internalType": "uint8",
							"name": "",
							"type": "uint8"
						}
					],
					"stateMutability": "view",
					"type": "function"
				}
			],
			"devdoc": {
				"kind": "dev",
				"methods": {},
				"version": 1
			},
			"evm": {
				"assembly": "    /* \"test/dataTypes.sol\":61:1442  contract DataTypes{... */\n  mstore(0x40, 0x80)\n    /* \"test/dataTypes.sol\":129:133  true */\n  0x01\n    /* \"test/dataTypes.sol\":111:133  bool public  no = true */\n  0x00\n  exp(0x0100, 0x01)\n  dup2\n  sload\n  dup2\n  0xff\n  mul\n  not\n  and\n  swap1\n  dup4\n  iszero\n  iszero\n  mul\n  or\n  swap1\n  sstore\n  pop\n    /* \"test/dataTypes.sol\":407:408  1 */\n  0x01\n    /* \"test/dataTypes.sol\":389:408  uint8 public u8 = 1 */\n  0x00\n  exp(0x0100, 0x02)\n  dup2\n  sload\n  dup2\n  0xff\n  mul\n  not\n  and\n  swap1\n  dup4\n  0xff\n  and\n  mul\n  or\n  swap1\n  sstore\n  pop\n    /* \"test/dataTypes.sol\":434:437  456 */\n  0x01c8\n    /* \"test/dataTypes.sol\":415:437  uint public u256 = 456 */\n  0x01\n  sstore\n    /* \"test/dataTypes.sol\":460:463  123 */\n  0x7b\n    /* \"test/dataTypes.sol\":444:463  uint public u = 123 */\n  0x02\n  sstore\n    /* \"test/dataTypes.sol\":652:654  -1 */\n  0xffffffffffffffffffffffffffffffffffffffffffffffffffffffffffffffff\n    /* \"test/dataTypes.sol\":635:654  int8 public i8 = -1 */\n  0x03\n  exp(0x0100, 0x00)\n  dup2\n  sload\n  dup2\n  0xff\n  mul\n  not\n  and\n  swap1\n  dup4\n  0x00\n  signextend\n  0xff\n  and\n  mul\n  or\n  swap1\n  sstore\n  pop\n    /* \"test/dataTypes.sol\":680:683  456 */\n  0x01c8\n    /* \"test/dataTypes.sol\":661:683  int public  i256 = 456 */\n  0x04\n  sstore\n    /* \"test/dataTypes.sol\":706:711  -1234 */\n  0xfffffffffffffffffffffffffffffffffffffffffffffffffffffffffffffb2e\n    /* \"test/dataTypes.sol\":690:711  int public  i = -1234 */\n  0x05\n  sstore\n    /* \"test/dataTypes.sol\":775:788  type(int).min */\n  0x8000000000000000000000000000000000000000000000000000000000000000\n    /* \"test/dataTypes.sol\":754:788  int public  minInt = type(int).min */\n  0x06\n  sstore\n    /* \"test/dataTypes.sol\":816:829  type(int).max */\n  0x7fffffffffffffffffffffffffffffffffffffffffffffffffffffffffffffff\n    /* \"test/dataTypes.sol\":795:829  int public  maxInt = type(int).max */\n  0x07\n  sstore\n    /* \"test/dataTypes.sol\":1061:1065  0xb5 */\n  0xb5\n    /* \"test/dataTypes.sol\":1043:1065  bytes1 public a = 0xb5 */\n  0xf8\n  shl\n  0x08\n  exp(0x0100, 0x00)\n  dup2\n  sload\n  dup2\n  0xff\n  mul\n  not\n  and\n  swap1\n  dup4\n  0xf8\n  shr\n  mul\n  or\n  swap1\n  sstore\n  pop\n    /* \"test/dataTypes.sol\":1090:1094  0x4f */\n  0x4f\n    /* \"test/dataTypes.sol\":1072:1094  bytes1 public b = 0x4f */\n  0xf8\n  shl\n  0x08\n  exp(0x0100, 0x01)\n  dup2\n  sload\n  dup2\n  0xff\n  mul\n  not\n  and\n  swap1\n  dup4\n  0xf8\n  shr\n  mul\n  or\n  swap1\n  sstore\n  pop\n    /* \"test/dataTypes.sol\":1172:1214  0xAb8483F64d9C6d1EcF9b849Ae677dD3315835cb2 */\n  0xab8483f64d9c6d1ecf9b849ae677dd3315835cb2\n    /* \"test/dataTypes.sol\":1150:1214  address public addr = 0xAb8483F64d9C6d1EcF9b849Ae677dD3315835cb2 */\n  0x09\n  exp(0x0100, 0x00)\n  dup2\n  sload\n  dup2\n  0xffffffffffffffffffffffffffffffffffffffff\n  mul\n  not\n  and\n  swap1\n  dup4\n  0xffffffffffffffffffffffffffffffffffffffff\n  and\n  mul\n  or\n  swap1\n  sstore\n  pop\n    /* \"test/dataTypes.sol\":61:1442  contract DataTypes{... */\n  callvalue\n  dup1\n  iszero\n  tag_1\n  jumpi\n  0x00\n  dup1\n  revert\ntag_1:\n  pop\n  dataSize(sub_0)\n  dup1\n  dataOffset(sub_0)\n  0x00\n  codecopy\n  0x00\n  return\nstop\n\nsub_0: assembly {\n        /* \"test/dataTypes.sol\":61:1442  contract DataTypes{... */\n      mstore(0x40, 0x80)\n      callvalue\n      dup1\n      iszero\n      tag_1\n      jumpi\n      0x00\n      dup1\n      revert\n    tag_1:\n      pop\n      jumpi(tag_2, lt(calldatasize, 0x04))\n      shr(0xe0, calldataload(0x00))\n      dup1\n      0x7a4c2571\n      gt\n      tag_22\n      jumpi\n      dup1\n      0xab3a58a3\n      gt\n      tag_23\n      jumpi\n      dup1\n      0xab3a58a3\n      eq\n      tag_17\n      jumpi\n      dup1\n      0xb6c52ae8\n      eq\n      tag_18\n      jumpi\n      dup1\n      0xbde2b573\n      eq\n      tag_19\n      jumpi\n      dup1\n      0xc6a898c5\n      eq\n      tag_20\n      jumpi\n      dup1\n      0xe5aa3d58\n      eq\n      tag_21\n      jumpi\n      jump(tag_2)\n    tag_23:\n      dup1\n      0x7a4c2571\n      eq\n      tag_12\n      jumpi\n      dup1\n      0x7bb125a8\n      eq\n      tag_13\n      jumpi\n      dup1\n      0x7e4e14cc\n      eq\n      tag_14\n      jumpi\n      dup1\n      0x8381f58a\n      eq\n      tag_15\n      jumpi\n      dup1\n      0x921cda74\n      eq\n      tag_16\n      jumpi\n      jump(tag_2)\n    tag_22:\n      dup1\n      0x4c27fd62\n      gt\n      tag_24\n      jumpi\n      dup1\n      0x4c27fd62\n      eq\n      tag_7\n      jumpi\n      dup1\n      0x4df7e3d0\n      eq\n      tag_8\n      jumpi\n      dup1\n      0x57c602c4\n      eq\n      tag_9\n      jumpi\n      dup1\n      0x7082e1b5\n      eq\n      tag_10\n      jumpi\n      dup1\n      0x767800de\n      eq\n      tag_11\n      jumpi\n      jump(tag_2)\n    tag_24:\n      dup1\n      0x098181b7\n      eq\n      tag_3\n      jumpi\n      dup1\n      0x0dbe671f\n      eq\n      tag_4\n      jumpi\n      dup1\n      0x2afc7417\n      eq\n      tag_5\n      jumpi\n      dup1\n      0x459b1acf\n      eq\n      tag_6\n      jumpi\n    tag_2:\n      0x00\n      dup1\n      revert\n        /* \"test/dataTypes.sol\":1396:1422  bytes1 public defaultbytes */\n    tag_3:\n      tag_25\n      tag_26\n      jump\t// in\n    tag_25:\n      mload(0x40)\n      tag_27\n      swap2\n      swap1\n      tag_28\n      jump\t// in\n    tag_27:\n      mload(0x40)\n      dup1\n      swap2\n      sub\n      swap1\n      return\n        /* \"test/dataTypes.sol\":1043:1065  bytes1 public a = 0xb5 */\n    tag_4:\n      tag_29\n      tag_30\n      jump\t// in\n    tag_29:\n      mload(0x40)\n      tag_31\n      swap2\n      swap1\n      tag_28\n      jump\t// in\n    tag_31:\n      mload(0x40)\n      dup1\n      swap2\n      sub\n      swap1\n      return\n        /* \"test/dataTypes.sol\":1247:1271  bool public  defaultbool */\n    tag_5:\n      tag_32\n      tag_33\n      jump\t// in\n    tag_32:\n      mload(0x40)\n      tag_34\n      swap2\n      swap1\n      tag_35\n      jump\t// in\n    tag_34:\n      mload(0x40)\n      dup1\n      swap2\n      sub\n      swap1\n      return\n        /* \"test/dataTypes.sol\":415:437  uint public u256 = 456 */\n    tag_6:\n      tag_36\n      tag_37\n      jump\t// in\n    tag_36:\n      mload(0x40)\n      tag_38\n      swap2\n      swap1\n      tag_39\n      jump\t// in\n    tag_38:\n      mload(0x40)\n      dup1\n      swap2\n      sub\n      swap1\n      return\n        /* \"test/dataTypes.sol\":661:683  int public  i256 = 456 */\n    tag_7:\n      tag_40\n      tag_41\n      jump\t// in\n    tag_40:\n      mload(0x40)\n      tag_42\n      swap2\n      swap1\n      tag_43\n      jump\t// in\n    tag_42:\n      mload(0x40)\n      dup1\n      swap2\n      sub\n      swap1\n      return\n        /* \"test/dataTypes.sol\":1072:1094  bytes1 public b = 0x4f */\n    tag_8:\n      tag_44\n      tag_45\n      jump\t// in\n    tag_44:\n      mload(0x40)\n      tag_46\n      swap2\n      swap1\n      tag_28\n      jump\t// in\n    tag_46:\n      mload(0x40)\n      dup1\n      swap2\n      sub\n      swap1\n      return\n        /* \"test/dataTypes.sol\":1126:1143  address public hy */\n    tag_9:\n      tag_47\n      tag_48\n      jump\t// in\n    tag_47:\n      mload(0x40)\n      tag_49\n      swap2\n      swap1\n      tag_50\n      jump\t// in\n    tag_49:\n      mload(0x40)\n      dup1\n      swap2\n      sub\n      swap1\n      return\n        /* \"test/dataTypes.sol\":1365:1386  int public defaultint */\n    tag_10:\n      tag_51\n      tag_52\n      jump\t// in\n    tag_51:\n      mload(0x40)\n      tag_53\n      swap2\n      swap1\n      tag_43\n      jump\t// in\n    tag_53:\n      mload(0x40)\n      dup1\n      swap2\n      sub\n      swap1\n      return\n        /* \"test/dataTypes.sol\":1150:1214  address public addr = 0xAb8483F64d9C6d1EcF9b849Ae677dD3315835cb2 */\n    tag_11:\n      tag_54\n      tag_55\n      jump\t// in\n    tag_54:\n      mload(0x40)\n      tag_56\n      swap2\n      swap1\n      tag_50\n      jump\t// in\n    tag_56:\n      mload(0x40)\n      dup1\n      swap2\n      sub\n      swap1\n      return\n        /* \"test/dataTypes.sol\":795:829  int public  maxInt = type(int).max */\n    tag_12:\n      tag_57\n      tag_58\n      jump\t// in\n    tag_57:\n      mload(0x40)\n      tag_59\n      swap2\n      swap1\n      tag_43\n      jump\t// in\n    tag_59:\n      mload(0x40)\n      dup1\n      swap2\n      sub\n      swap1\n      return\n        /* \"test/dataTypes.sol\":1313:1342  address public defaultaddress */\n    tag_13:\n      tag_60\n      tag_61\n      jump\t// in\n    tag_60:\n      mload(0x40)\n      tag_62\n      swap2\n      swap1\n      tag_50\n      jump\t// in\n    tag_62:\n      mload(0x40)\n      dup1\n      swap2\n      sub\n      swap1\n      return\n        /* \"test/dataTypes.sol\":754:788  int public  minInt = type(int).min */\n    tag_14:\n      tag_63\n      tag_64\n      jump\t// in\n    tag_63:\n      mload(0x40)\n      tag_65\n      swap2\n      swap1\n      tag_43\n      jump\t// in\n    tag_65:\n      mload(0x40)\n      dup1\n      swap2\n      sub\n      swap1\n      return\n        /* \"test/dataTypes.sol\":1285:1303  uint public number */\n    tag_15:\n      tag_66\n      tag_67\n      jump\t// in\n    tag_66:\n      mload(0x40)\n      tag_68\n      swap2\n      swap1\n      tag_39\n      jump\t// in\n    tag_68:\n      mload(0x40)\n      dup1\n      swap2\n      sub\n      swap1\n      return\n        /* \"test/dataTypes.sol\":635:654  int8 public i8 = -1 */\n    tag_16:\n      tag_69\n      tag_70\n      jump\t// in\n    tag_69:\n      mload(0x40)\n      tag_71\n      swap2\n      swap1\n      tag_72\n      jump\t// in\n    tag_71:\n      mload(0x40)\n      dup1\n      swap2\n      sub\n      swap1\n      return\n        /* \"test/dataTypes.sol\":389:408  uint8 public u8 = 1 */\n    tag_17:\n      tag_73\n      tag_74\n      jump\t// in\n    tag_73:\n      mload(0x40)\n      tag_75\n      swap2\n      swap1\n      tag_76\n      jump\t// in\n    tag_75:\n      mload(0x40)\n      dup1\n      swap2\n      sub\n      swap1\n      return\n        /* \"test/dataTypes.sol\":111:133  bool public  no = true */\n    tag_18:\n      tag_77\n      tag_78\n      jump\t// in\n    tag_77:\n      mload(0x40)\n      tag_79\n      swap2\n      swap1\n      tag_35\n      jump\t// in\n    tag_79:\n      mload(0x40)\n      dup1\n      swap2\n      sub\n      swap1\n      return\n        /* \"test/dataTypes.sol\":88:104  bool public  hey */\n    tag_19:\n      tag_80\n      tag_81\n      jump\t// in\n    tag_80:\n      mload(0x40)\n      tag_82\n      swap2\n      swap1\n      tag_35\n      jump\t// in\n    tag_82:\n      mload(0x40)\n      dup1\n      swap2\n      sub\n      swap1\n      return\n        /* \"test/dataTypes.sol\":444:463  uint public u = 123 */\n    tag_20:\n      tag_83\n      tag_84\n      jump\t// in\n    tag_83:\n      mload(0x40)\n      tag_85\n      swap2\n      swap1\n      tag_39\n      jump\t// in\n    tag_85:\n      mload(0x40)\n      dup1\n      swap2\n      sub\n      swap1\n      return\n        /* \"test/dataTypes.sol\":690:711  int public  i = -1234 */\n    tag_21:\n      tag_86\n      tag_87\n      jump\t// in\n    tag_86:\n      mload(0x40)\n      tag_88\n      swap2\n      swap1\n      tag_43\n      jump\t// in\n    tag_88:\n      mload(0x40)\n      dup1\n      swap2\n      sub\n      swap1\n      return\n        /* \"test/dataTypes.sol\":1396:1422  bytes1 public defaultbytes */\n    tag_26:\n      0x0d\n      0x00\n      swap1\n      sload\n      swap1\n      0x0100\n      exp\n      swap1\n      div\n      0xf8\n      shl\n      dup2\n      jump\t// out\n        /* \"test/dataTypes.sol\":1043:1065  bytes1 public a = 0xb5 */\n    tag_30:\n      0x08\n      0x00\n      swap1\n      sload\n      swap1\n      0x0100\n      exp\n      swap1\n      div\n      0xf8\n      shl\n      dup2\n      jump\t// out\n        /* \"test/dataTypes.sol\":1247:1271  bool public  defaultbool */\n    tag_33:\n      0x09\n      0x14\n      swap1\n      sload\n      swap1\n      0x0100\n      exp\n      swap1\n      div\n      0xff\n      and\n      dup2\n      jump\t// out\n        /* \"test/dataTypes.sol\":415:437  uint public u256 = 456 */\n    tag_37:\n      sload(0x01)\n      dup2\n      jump\t// out\n        /* \"test/dataTypes.sol\":661:683  int public  i256 = 456 */\n    tag_41:\n      sload(0x04)\n      dup2\n      jump\t// out\n        /* \"test/dataTypes.sol\":1072:1094  bytes1 public b = 0x4f */\n    tag_45:\n      0x08\n      0x01\n      swap1\n      sload\n      swap1\n      0x0100\n      exp\n      swap1\n      div\n      0xf8\n      shl\n      dup2\n      jump\t// out\n        /* \"test/dataTypes.sol\":1126:1143  address public hy */\n    tag_48:\n      0x08\n      0x02\n      swap1\n      sload\n      swap1\n      0x0100\n      exp\n      swap1\n      div\n      0xffffffffffffffffffffffffffffffffffffffff\n      and\n      dup2\n      jump\t// out\n        /* \"test/dataTypes.sol\":1365:1386  int public defaultint */\n    tag_52:\n      sload(0x0c)\n      dup2\n      jump\t// out\n        /* \"test/dataTypes.sol\":1150:1214  address public addr = 0xAb8483F64d9C6d1EcF9b849Ae677dD3315835cb2 */\n    tag_55:\n      0x09\n      0x00\n      swap1\n      sload\n      swap1\n      0x0100\n      exp\n      swap1\n      div\n      0xffffffffffffffffffffffffffffffffffffffff\n      and\n      dup2\n      jump\t// out\n        /* \"test/dataTypes.sol\":795:829  int public  maxInt = type(int).max */\n    tag_58:\n      sload(0x07)\n      dup2\n      jump\t// out\n        /* \"test/dataTypes.sol\":1313:1342  address public defaultaddress */\n    tag_61:\n      0x0b\n      0x00\n      swap1\n      sload\n      swap1\n      0x0100\n      exp\n      swap1\n      div\n      0xffffffffffffffffffffffffffffffffffffffff\n      and\n      dup2\n      jump\t// out\n        /* \"test/dataTypes.sol\":754:788  int public  minInt = type(int).min */\n    tag_64:\n      sload(0x06)\n      dup2\n      jump\t// out\n        /* \"test/dataTypes.sol\":1285:1303  uint public number */\n    tag_67:\n      sload(0x0a)\n      dup2\n      jump\t// out\n        /* \"test/dataTypes.sol\":635:654  int8 public i8 = -1 */\n    tag_70:\n      0x03\n      0x00\n      swap1\n      sload\n      swap1\n      0x0100\n      exp\n      swap1\n      div\n      0x00\n      signextend\n      dup2\n      jump\t// out\n        /* \"test/dataTypes.sol\":389:408  uint8 public u8 = 1 */\n    tag_74:\n      0x00\n      0x02\n      swap1\n      sload\n      swap1\n      0x0100\n      exp\n      swap1\n      div\n      0xff\n      and\n      dup2\n      jump\t// out\n        /* \"test/dataTypes.sol\":111:133  bool public  no = true */\n    tag_78:\n      0x00\n      0x01\n      swap1\n      sload\n      swap1\n      0x0100\n      exp\n      swap1\n      div\n      0xff\n      and\n      dup2\n      jump\t// out\n        /* \"test/dataTypes.sol\":88:104  bool public  hey */\n    tag_81:\n      0x00\n      dup1\n      sload\n      swap1\n      0x0100\n      exp\n      swap1\n      div\n      0xff\n      and\n      dup2\n      jump\t// out\n        /* \"test/dataTypes.sol\":444:463  uint public u = 123 */\n    tag_84:\n      sload(0x02)\n      dup2\n      jump\t// out\n        /* \"test/dataTypes.sol\":690:711  int public  i = -1234 */\n    tag_87:\n      sload(0x05)\n      dup2\n      jump\t// out\n        /* \"#utility.yul\":7:156   */\n    tag_89:\n        /* \"#utility.yul\":43:50   */\n      0x00\n        /* \"#utility.yul\":83:149   */\n      0xff00000000000000000000000000000000000000000000000000000000000000\n        /* \"#utility.yul\":76:81   */\n      dup3\n        /* \"#utility.yul\":72:150   */\n      and\n        /* \"#utility.yul\":61:150   */\n      swap1\n      pop\n        /* \"#utility.yul\":7:156   */\n      swap2\n      swap1\n      pop\n      jump\t// out\n        /* \"#utility.yul\":162:277   */\n    tag_90:\n        /* \"#utility.yul\":247:270   */\n      tag_107\n        /* \"#utility.yul\":264:269   */\n      dup2\n        /* \"#utility.yul\":247:270   */\n      tag_89\n      jump\t// in\n    tag_107:\n        /* \"#utility.yul\":242:245   */\n      dup3\n        /* \"#utility.yul\":235:271   */\n      mstore\n        /* \"#utility.yul\":162:277   */\n      pop\n      pop\n      jump\t// out\n        /* \"#utility.yul\":283:501   */\n    tag_28:\n        /* \"#utility.yul\":374:378   */\n      0x00\n        /* \"#utility.yul\":412:414   */\n      0x20\n        /* \"#utility.yul\":401:410   */\n      dup3\n        /* \"#utility.yul\":397:415   */\n      add\n        /* \"#utility.yul\":389:415   */\n      swap1\n      pop\n        /* \"#utility.yul\":425:494   */\n      tag_109\n        /* \"#utility.yul\":491:492   */\n      0x00\n        /* \"#utility.yul\":480:489   */\n      dup4\n        /* \"#utility.yul\":476:493   */\n      add\n        /* \"#utility.yul\":467:473   */\n      dup5\n        /* \"#utility.yul\":425:494   */\n      tag_90\n      jump\t// in\n    tag_109:\n        /* \"#utility.yul\":283:501   */\n      swap3\n      swap2\n      pop\n      pop\n      jump\t// out\n        /* \"#utility.yul\":507:597   */\n    tag_91:\n        /* \"#utility.yul\":541:548   */\n      0x00\n        /* \"#utility.yul\":584:589   */\n      dup2\n        /* \"#utility.yul\":577:590   */\n      iszero\n        /* \"#utility.yul\":570:591   */\n      iszero\n        /* \"#utility.yul\":559:591   */\n      swap1\n      pop\n        /* \"#utility.yul\":507:597   */\n      swap2\n      swap1\n      pop\n      jump\t// out\n        /* \"#utility.yul\":603:712   */\n    tag_92:\n        /* \"#utility.yul\":684:705   */\n      tag_112\n        /* \"#utility.yul\":699:704   */\n      dup2\n        /* \"#utility.yul\":684:705   */\n      tag_91\n      jump\t// in\n    tag_112:\n        /* \"#utility.yul\":679:682   */\n      dup3\n        /* \"#utility.yul\":672:706   */\n      mstore\n        /* \"#utility.yul\":603:712   */\n      pop\n      pop\n      jump\t// out\n        /* \"#utility.yul\":718:928   */\n    tag_35:\n        /* \"#utility.yul\":805:809   */\n      0x00\n        /* \"#utility.yul\":843:845   */\n      0x20\n        /* \"#utility.yul\":832:841   */\n      dup3\n        /* \"#utility.yul\":828:846   */\n      add\n        /* \"#utility.yul\":820:846   */\n      swap1\n      pop\n        /* \"#utility.yul\":856:921   */\n      tag_114\n        /* \"#utility.yul\":918:919   */\n      0x00\n        /* \"#utility.yul\":907:916   */\n      dup4\n        /* \"#utility.yul\":903:920   */\n      add\n        /* \"#utility.yul\":894:900   */\n      dup5\n        /* \"#utility.yul\":856:921   */\n      tag_92\n      jump\t// in\n    tag_114:\n        /* \"#utility.yul\":718:928   */\n      swap3\n      swap2\n      pop\n      pop\n      jump\t// out\n        /* \"#utility.yul\":934:1011   */\n    tag_93:\n        /* \"#utility.yul\":971:978   */\n      0x00\n        /* \"#utility.yul\":1000:1005   */\n      dup2\n        /* \"#utility.yul\":989:1005   */\n      swap1\n      pop\n        /* \"#utility.yul\":934:1011   */\n      swap2\n      swap1\n      pop\n      jump\t// out\n        /* \"#utility.yul\":1017:1135   */\n    tag_94:\n        /* \"#utility.yul\":1104:1128   */\n      tag_117\n        /* \"#utility.yul\":1122:1127   */\n      dup2\n        /* \"#utility.yul\":1104:1128   */\n      tag_93\n      jump\t// in\n    tag_117:\n        /* \"#utility.yul\":1099:1102   */\n      dup3\n        /* \"#utility.yul\":1092:1129   */\n      mstore\n        /* \"#utility.yul\":1017:1135   */\n      pop\n      pop\n      jump\t// out\n        /* \"#utility.yul\":1141:1363   */\n    tag_39:\n        /* \"#utility.yul\":1234:1238   */\n      0x00\n        /* \"#utility.yul\":1272:1274   */\n      0x20\n        /* \"#utility.yul\":1261:1270   */\n      dup3\n        /* \"#utility.yul\":1257:1275   */\n      add\n        /* \"#utility.yul\":1249:1275   */\n      swap1\n      pop\n        /* \"#utility.yul\":1285:1356   */\n      tag_119\n        /* \"#utility.yul\":1353:1354   */\n      0x00\n        /* \"#utility.yul\":1342:1351   */\n      dup4\n        /* \"#utility.yul\":1338:1355   */\n      add\n        /* \"#utility.yul\":1329:1335   */\n      dup5\n        /* \"#utility.yul\":1285:1356   */\n      tag_94\n      jump\t// in\n    tag_119:\n        /* \"#utility.yul\":1141:1363   */\n      swap3\n      swap2\n      pop\n      pop\n      jump\t// out\n        /* \"#utility.yul\":1369:1445   */\n    tag_95:\n        /* \"#utility.yul\":1405:1412   */\n      0x00\n        /* \"#utility.yul\":1434:1439   */\n      dup2\n        /* \"#utility.yul\":1423:1439   */\n      swap1\n      pop\n        /* \"#utility.yul\":1369:1445   */\n      swap2\n      swap1\n      pop\n      jump\t// out\n        /* \"#utility.yul\":1451:1566   */\n    tag_96:\n        /* \"#utility.yul\":1536:1559   */\n      tag_122\n        /* \"#utility.yul\":1553:1558   */\n      dup2\n        /* \"#utility.yul\":1536:1559   */\n      tag_95\n      jump\t// in\n    tag_122:\n        /* \"#utility.yul\":1531:1534   */\n      dup3\n        /* \"#utility.yul\":1524:1560   */\n      mstore\n        /* \"#utility.yul\":1451:1566   */\n      pop\n      pop\n      jump\t// out\n        /* \"#utility.yul\":1572:1790   */\n    tag_43:\n        /* \"#utility.yul\":1663:1667   */\n      0x00\n        /* \"#utility.yul\":1701:1703   */\n      0x20\n        /* \"#utility.yul\":1690:1699   */\n      dup3\n        /* \"#utility.yul\":1686:1704   */\n      add\n        /* \"#utility.yul\":1678:1704   */\n      swap1\n      pop\n        /* \"#utility.yul\":1714:1783   */\n      tag_124\n        /* \"#utility.yul\":1780:1781   */\n      0x00\n        /* \"#utility.yul\":1769:1778   */\n      dup4\n        /* \"#utility.yul\":1765:1782   */\n      add\n        /* \"#utility.yul\":1756:1762   */\n      dup5\n        /* \"#utility.yul\":1714:1783   */\n      tag_96\n      jump\t// in\n    tag_124:\n        /* \"#utility.yul\":1572:1790   */\n      swap3\n      swap2\n      pop\n      pop\n      jump\t// out\n        /* \"#utility.yul\":1796:1922   */\n    tag_97:\n        /* \"#utility.yul\":1833:1840   */\n      0x00\n        /* \"#utility.yul\":1873:1915   */\n      0xffffffffffffffffffffffffffffffffffffffff\n        /* \"#utility.yul\":1866:1871   */\n      dup3\n        /* \"#utility.yul\":1862:1916   */\n      and\n        /* \"#utility.yul\":1851:1916   */\n      swap1\n      pop\n        /* \"#utility.yul\":1796:1922   */\n      swap2\n      swap1\n      pop\n      jump\t// out\n        /* \"#utility.yul\":1928:2024   */\n    tag_98:\n        /* \"#utility.yul\":1965:1972   */\n      0x00\n        /* \"#utility.yul\":1994:2018   */\n      tag_127\n        /* \"#utility.yul\":2012:2017   */\n      dup3\n        /* \"#utility.yul\":1994:2018   */\n      tag_97\n      jump\t// in\n    tag_127:\n        /* \"#utility.yul\":1983:2018   */\n      swap1\n      pop\n        /* \"#utility.yul\":1928:2024   */\n      swap2\n      swap1\n      pop\n      jump\t// out\n        /* \"#utility.yul\":2030:2148   */\n    tag_99:\n        /* \"#utility.yul\":2117:2141   */\n      tag_129\n        /* \"#utility.yul\":2135:2140   */\n      dup2\n        /* \"#utility.yul\":2117:2141   */\n      tag_98\n      jump\t// in\n    tag_129:\n        /* \"#utility.yul\":2112:2115   */\n      dup3\n        /* \"#utility.yul\":2105:2142   */\n      mstore\n        /* \"#utility.yul\":2030:2148   */\n      pop\n      pop\n      jump\t// out\n        /* \"#utility.yul\":2154:2376   */\n    tag_50:\n        /* \"#utility.yul\":2247:2251   */\n      0x00\n        /* \"#utility.yul\":2285:2287   */\n      0x20\n        /* \"#utility.yul\":2274:2283   */\n      dup3\n        /* \"#utility.yul\":2270:2288   */\n      add\n        /* \"#utility.yul\":2262:2288   */\n      swap1\n      pop\n        /* \"#utility.yul\":2298:2369   */\n      tag_131\n        /* \"#utility.yul\":2366:2367   */\n      0x00\n        /* \"#utility.yul\":2355:2364   */\n      dup4\n        /* \"#utility.yul\":2351:2368   */\n      add\n        /* \"#utility.yul\":2342:2348   */\n      dup5\n        /* \"#utility.yul\":2298:2369   */\n      tag_99\n      jump\t// in\n    tag_131:\n        /* \"#utility.yul\":2154:2376   */\n      swap3\n      swap2\n      pop\n      pop\n      jump\t// out\n        /* \"#utility.yul\":2382:2471   */\n    tag_100:\n        /* \"#utility.yul\":2416:2423   */\n      0x00\n        /* \"#utility.yul\":2459:2464   */\n      dup2\n        /* \"#utility.yul\":2456:2457   */\n      0x00\n        /* \"#utility.yul\":2445:2465   */\n      signextend\n        /* \"#utility.yul\":2434:2465   */\n      swap1\n      pop\n        /* \"#utility.yul\":2382:2471   */\n      swap2\n      swap1\n      pop\n      jump\t// out\n        /* \"#utility.yul\":2477:2586   */\n    tag_101:\n        /* \"#utility.yul\":2558:2579   */\n      tag_134\n        /* \"#utility.yul\":2573:2578   */\n      dup2\n        /* \"#utility.yul\":2558:2579   */\n      tag_100\n      jump\t// in\n    tag_134:\n        /* \"#utility.yul\":2553:2556   */\n      dup3\n        /* \"#utility.yul\":2546:2580   */\n      mstore\n        /* \"#utility.yul\":2477:2586   */\n      pop\n      pop\n      jump\t// out\n        /* \"#utility.yul\":2592:2802   */\n    tag_72:\n        /* \"#utility.yul\":2679:2683   */\n      0x00\n        /* \"#utility.yul\":2717:2719   */\n      0x20\n        /* \"#utility.yul\":2706:2715   */\n      dup3\n        /* \"#utility.yul\":2702:2720   */\n      add\n        /* \"#utility.yul\":2694:2720   */\n      swap1\n      pop\n        /* \"#utility.yul\":2730:2795   */\n      tag_136\n        /* \"#utility.yul\":2792:2793   */\n      0x00\n        /* \"#utility.yul\":2781:2790   */\n      dup4\n        /* \"#utility.yul\":2777:2794   */\n      add\n        /* \"#utility.yul\":2768:2774   */\n      dup5\n        /* \"#utility.yul\":2730:2795   */\n      tag_101\n      jump\t// in\n    tag_136:\n        /* \"#utility.yul\":2592:2802   */\n      swap3\n      swap2\n      pop\n      pop\n      jump\t// out\n        /* \"#utility.yul\":2808:2894   */\n    tag_102:\n        /* \"#utility.yul\":2843:2850   */\n      0x00\n        /* \"#utility.yul\":2883:2887   */\n      0xff\n        /* \"#utility.yul\":2876:2881   */\n      dup3\n        /* \"#utility.yul\":2872:2888   */\n      and\n        /* \"#utility.yul\":2861:2888   */\n      swap1\n      pop\n        /* \"#utility.yul\":2808:2894   */\n      swap2\n      swap1\n      pop\n      jump\t// out\n        /* \"#utility.yul\":2900:3012   */\n    tag_103:\n        /* \"#utility.yul\":2983:3005   */\n      tag_139\n        /* \"#utility.yul\":2999:3004   */\n      dup2\n        /* \"#utility.yul\":2983:3005   */\n      tag_102\n      jump\t// in\n    tag_139:\n        /* \"#utility.yul\":2978:2981   */\n      dup3\n        /* \"#utility.yul\":2971:3006   */\n      mstore\n        /* \"#utility.yul\":2900:3012   */\n      pop\n      pop\n      jump\t// out\n        /* \"#utility.yul\":3018:3232   */\n    tag_76:\n        /* \"#utility.yul\":3107:3111   */\n      0x00\n        /* \"#utility.yul\":3145:3147   */\n      0x20\n        /* \"#utility.yul\":3134:3143   */\n      dup3\n        /* \"#utility.yul\":3130:3148   */\n      add\n        /* \"#utility.yul\":3122:3148   */\n      swap1\n      pop\n        /* \"#utility.yul\":3158:3225   */\n      tag_141\n        /* \"#utility.yul\":3222:3223   */\n      0x00\n        /* \"#utility.yul\":3211:3220   */\n      dup4\n        /* \"#utility.yul\":3207:3224   */\n      add\n        /* \"#utility.yul\":3198:3204   */\n      dup5\n        /* \"#utility.yul\":3158:3225   */\n      tag_103\n      jump\t// in\n    tag_141:\n        /* \"#utility.yul\":3018:3232   */\n      swap3\n      swap2\n      pop\n      pop\n      jump\t// out\n\n    auxdata: 0xa264697066735822122039336483d8126ec4302b246cb824157b65b26e2d054b40d28b7a6f3124171a5564736f6c63430008160033\n}\n",
				"bytecode": {
					"linkReferences": {},
					"object": "608060405260015f60016101000a81548160ff02191690831515021790555060015f60026101000a81548160ff021916908360ff1602179055506101c8600155607b6002557fffffffffffffffffffffffffffffffffffffffffffffffffffffffffffffffff60035f6101000a81548160ff02191690835f0b60ff1602179055506101c86004557ffffffffffffffffffffffffffffffffffffffffffffffffffffffffffffffb2e6005557f80000000000000000000000000000000000000000000000000000000000000006006557f7fffffffffffffffffffffffffffffffffffffffffffffffffffffffffffffff60075560b560f81b60085f6101000a81548160ff021916908360f81c0217905550604f60f81b600860016101000a81548160ff021916908360f81c021790555073ab8483f64d9c6d1ecf9b849ae677dd3315835cb260095f6101000a81548173ffffffffffffffffffffffffffffffffffffffff021916908373ffffffffffffffffffffffffffffffffffffffff16021790555034801561018e575f80fd5b506106698061019c5f395ff3fe608060405234801561000f575f80fd5b506004361061011f575f3560e01c80637a4c2571116100ab578063ab3a58a31161006f578063ab3a58a3146102c7578063b6c52ae8146102e5578063bde2b57314610303578063c6a898c514610321578063e5aa3d581461033f5761011f565b80637a4c2571146102315780637bb125a81461024f5780637e4e14cc1461026d5780638381f58a1461028b578063921cda74146102a95761011f565b80634c27fd62116100f25780634c27fd621461019b5780634df7e3d0146101b957806357c602c4146101d75780637082e1b5146101f5578063767800de146102135761011f565b8063098181b7146101235780630dbe671f146101415780632afc74171461015f578063459b1acf1461017d575b5f80fd5b61012b61035d565b60405161013891906104c6565b60405180910390f35b61014961036f565b60405161015691906104c6565b60405180910390f35b610167610381565b60405161017491906104f9565b60405180910390f35b610185610394565b604051610192919061052a565b60405180910390f35b6101a361039a565b6040516101b0919061055b565b60405180910390f35b6101c16103a0565b6040516101ce91906104c6565b60405180910390f35b6101df6103b3565b6040516101ec91906105b3565b60405180910390f35b6101fd6103d9565b60405161020a919061055b565b60405180910390f35b61021b6103df565b60405161022891906105b3565b60405180910390f35b610239610404565b604051610246919061055b565b60405180910390f35b61025761040a565b60405161026491906105b3565b60405180910390f35b61027561042f565b604051610282919061055b565b60405180910390f35b610293610435565b6040516102a0919061052a565b60405180910390f35b6102b161043b565b6040516102be91906105e6565b60405180910390f35b6102cf61044c565b6040516102dc919061061a565b60405180910390f35b6102ed61045e565b6040516102fa91906104f9565b60405180910390f35b61030b610470565b60405161031891906104f9565b60405180910390f35b610329610480565b604051610336919061052a565b60405180910390f35b610347610486565b604051610354919061055b565b60405180910390f35b600d5f9054906101000a900460f81b81565b60085f9054906101000a900460f81b81565b600960149054906101000a900460ff1681565b60015481565b60045481565b600860019054906101000a900460f81b81565b600860029054906101000a900473ffffffffffffffffffffffffffffffffffffffff1681565b600c5481565b60095f9054906101000a900473ffffffffffffffffffffffffffffffffffffffff1681565b60075481565b600b5f9054906101000a900473ffffffffffffffffffffffffffffffffffffffff1681565b60065481565b600a5481565b60035f9054906101000a90045f0b81565b5f60029054906101000a900460ff1681565b5f60019054906101000a900460ff1681565b5f8054906101000a900460ff1681565b60025481565b60055481565b5f7fff0000000000000000000000000000000000000000000000000000000000000082169050919050565b6104c08161048c565b82525050565b5f6020820190506104d95f8301846104b7565b92915050565b5f8115159050919050565b6104f3816104df565b82525050565b5f60208201905061050c5f8301846104ea565b92915050565b5f819050919050565b61052481610512565b82525050565b5f60208201905061053d5f83018461051b565b92915050565b5f819050919050565b61055581610543565b82525050565b5f60208201905061056e5f83018461054c565b92915050565b5f73ffffffffffffffffffffffffffffffffffffffff82169050919050565b5f61059d82610574565b9050919050565b6105ad81610593565b82525050565b5f6020820190506105c65f8301846105a4565b92915050565b5f815f0b9050919050565b6105e0816105cc565b82525050565b5f6020820190506105f95f8301846105d7565b92915050565b5f60ff82169050919050565b610614816105ff565b82525050565b5f60208201905061062d5f83018461060b565b9291505056fea264697066735822122039336483d8126ec4302b246cb824157b65b26e2d054b40d28b7a6f3124171a5564736f6c63430008160033",
					"opcodes": "PUSH1 0x80 PUSH1 0x40 MSTORE PUSH1 0x1 PUSH0 PUSH1 0x1 PUSH2 0x100 EXP DUP2 SLOAD DUP2 PUSH1 0xFF MUL NOT AND SWAP1 DUP4 ISZERO ISZERO MUL OR SWAP1 SSTORE POP PUSH1 0x1 PUSH0 PUSH1 0x2 PUSH2 0x100 EXP DUP2 SLOAD DUP2 PUSH1 0xFF MUL NOT AND SWAP1 DUP4 PUSH1 0xFF AND MUL OR SWAP1 SSTORE POP PUSH2 0x1C8 PUSH1 0x1 SSTORE PUSH1 0x7B PUSH1 0x2 SSTORE PUSH32 0xFFFFFFFFFFFFFFFFFFFFFFFFFFFFFFFFFFFFFFFFFFFFFFFFFFFFFFFFFFFFFFFF PUSH1 0x3 PUSH0 PUSH2 0x100 EXP DUP2 SLOAD DUP2 PUSH1 0xFF MUL NOT AND SWAP1 DUP4 PUSH0 SIGNEXTEND PUSH1 0xFF AND MUL OR SWAP1 SSTORE POP PUSH2 0x1C8 PUSH1 0x4 SSTORE PUSH32 0xFFFFFFFFFFFFFFFFFFFFFFFFFFFFFFFFFFFFFFFFFFFFFFFFFFFFFFFFFFFFFB2E PUSH1 0x5 SSTORE PUSH32 0x8000000000000000000000000000000000000000000000000000000000000000 PUSH1 0x6 SSTORE PUSH32 0x7FFFFFFFFFFFFFFFFFFFFFFFFFFFFFFFFFFFFFFFFFFFFFFFFFFFFFFFFFFFFFFF PUSH1 0x7 SSTORE PUSH1 0xB5 PUSH1 0xF8 SHL PUSH1 0x8 PUSH0 PUSH2 0x100 EXP DUP2 SLOAD DUP2 PUSH1 0xFF MUL NOT AND SWAP1 DUP4 PUSH1 0xF8 SHR MUL OR SWAP1 SSTORE POP PUSH1 0x4F PUSH1 0xF8 SHL PUSH1 0x8 PUSH1 0x1 PUSH2 0x100 EXP DUP2 SLOAD DUP2 PUSH1 0xFF MUL NOT AND SWAP1 DUP4 PUSH1 0xF8 SHR MUL OR SWAP1 SSTORE POP PUSH20 0xAB8483F64D9C6D1ECF9B849AE677DD3315835CB2 PUSH1 0x9 PUSH0 PUSH2 0x100 EXP DUP2 SLOAD DUP2 PUSH20 0xFFFFFFFFFFFFFFFFFFFFFFFFFFFFFFFFFFFFFFFF MUL NOT AND SWAP1 DUP4 PUSH20 0xFFFFFFFFFFFFFFFFFFFFFFFFFFFFFFFFFFFFFFFF AND MUL OR SWAP1 SSTORE POP CALLVALUE DUP1 ISZERO PUSH2 0x18E JUMPI PUSH0 DUP1 REVERT JUMPDEST POP PUSH2 0x669 DUP1 PUSH2 0x19C PUSH0 CODECOPY PUSH0 RETURN INVALID PUSH1 0x80 PUSH1 0x40 MSTORE CALLVALUE DUP1 ISZERO PUSH2 0xF JUMPI PUSH0 DUP1 REVERT JUMPDEST POP PUSH1 0x4 CALLDATASIZE LT PUSH2 0x11F JUMPI PUSH0 CALLDATALOAD PUSH1 0xE0 SHR DUP1 PUSH4 0x7A4C2571 GT PUSH2 0xAB JUMPI DUP1 PUSH4 0xAB3A58A3 GT PUSH2 0x6F JUMPI DUP1 PUSH4 0xAB3A58A3 EQ PUSH2 0x2C7 JUMPI DUP1 PUSH4 0xB6C52AE8 EQ PUSH2 0x2E5 JUMPI DUP1 PUSH4 0xBDE2B573 EQ PUSH2 0x303 JUMPI DUP1 PUSH4 0xC6A898C5 EQ PUSH2 0x321 JUMPI DUP1 PUSH4 0xE5AA3D58 EQ PUSH2 0x33F JUMPI PUSH2 0x11F JUMP JUMPDEST DUP1 PUSH4 0x7A4C2571 EQ PUSH2 0x231 JUMPI DUP1 PUSH4 0x7BB125A8 EQ PUSH2 0x24F JUMPI DUP1 PUSH4 0x7E4E14CC EQ PUSH2 0x26D JUMPI DUP1 PUSH4 0x8381F58A EQ PUSH2 0x28B JUMPI DUP1 PUSH4 0x921CDA74 EQ PUSH2 0x2A9 JUMPI PUSH2 0x11F JUMP JUMPDEST DUP1 PUSH4 0x4C27FD62 GT PUSH2 0xF2 JUMPI DUP1 PUSH4 0x4C27FD62 EQ PUSH2 0x19B JUMPI DUP1 PUSH4 0x4DF7E3D0 EQ PUSH2 0x1B9 JUMPI DUP1 PUSH4 0x57C602C4 EQ PUSH2 0x1D7 JUMPI DUP1 PUSH4 0x7082E1B5 EQ PUSH2 0x1F5 JUMPI DUP1 PUSH4 0x767800DE EQ PUSH2 0x213 JUMPI PUSH2 0x11F JUMP JUMPDEST DUP1 PUSH4 0x98181B7 EQ PUSH2 0x123 JUMPI DUP1 PUSH4 0xDBE671F EQ PUSH2 0x141 JUMPI DUP1 PUSH4 0x2AFC7417 EQ PUSH2 0x15F JUMPI DUP1 PUSH4 0x459B1ACF EQ PUSH2 0x17D JUMPI JUMPDEST PUSH0 DUP1 REVERT JUMPDEST PUSH2 0x12B PUSH2 0x35D JUMP JUMPDEST PUSH1 0x40 MLOAD PUSH2 0x138 SWAP2 SWAP1 PUSH2 0x4C6 JUMP JUMPDEST PUSH1 0x40 MLOAD DUP1 SWAP2 SUB SWAP1 RETURN JUMPDEST PUSH2 0x149 PUSH2 0x36F JUMP JUMPDEST PUSH1 0x40 MLOAD PUSH2 0x156 SWAP2 SWAP1 PUSH2 0x4C6 JUMP JUMPDEST PUSH1 0x40 MLOAD DUP1 SWAP2 SUB SWAP1 RETURN JUMPDEST PUSH2 0x167 PUSH2 0x381 JUMP JUMPDEST PUSH1 0x40 MLOAD PUSH2 0x174 SWAP2 SWAP1 PUSH2 0x4F9 JUMP JUMPDEST PUSH1 0x40 MLOAD DUP1 SWAP2 SUB SWAP1 RETURN JUMPDEST PUSH2 0x185 PUSH2 0x394 JUMP JUMPDEST PUSH1 0x40 MLOAD PUSH2 0x192 SWAP2 SWAP1 PUSH2 0x52A JUMP JUMPDEST PUSH1 0x40 MLOAD DUP1 SWAP2 SUB SWAP1 RETURN JUMPDEST PUSH2 0x1A3 PUSH2 0x39A JUMP JUMPDEST PUSH1 0x40 MLOAD PUSH2 0x1B0 SWAP2 SWAP1 PUSH2 0x55B JUMP JUMPDEST PUSH1 0x40 MLOAD DUP1 SWAP2 SUB SWAP1 RETURN JUMPDEST PUSH2 0x1C1 PUSH2 0x3A0 JUMP JUMPDEST PUSH1 0x40 MLOAD PUSH2 0x1CE SWAP2 SWAP1 PUSH2 0x4C6 JUMP JUMPDEST PUSH1 0x40 MLOAD DUP1 SWAP2 SUB SWAP1 RETURN JUMPDEST PUSH2 0x1DF PUSH2 0x3B3 JUMP JUMPDEST PUSH1 0x40 MLOAD PUSH2 0x1EC SWAP2 SWAP1 PUSH2 0x5B3 JUMP JUMPDEST PUSH1 0x40 MLOAD DUP1 SWAP2 SUB SWAP1 RETURN JUMPDEST PUSH2 0x1FD PUSH2 0x3D9 JUMP JUMPDEST PUSH1 0x40 MLOAD PUSH2 0x20A SWAP2 SWAP1 PUSH2 0x55B JUMP JUMPDEST PUSH1 0x40 MLOAD DUP1 SWAP2 SUB SWAP1 RETURN JUMPDEST PUSH2 0x21B PUSH2 0x3DF JUMP JUMPDEST PUSH1 0x40 MLOAD PUSH2 0x228 SWAP2 SWAP1 PUSH2 0x5B3 JUMP JUMPDEST PUSH1 0x40 MLOAD DUP1 SWAP2 SUB SWAP1 RETURN JUMPDEST PUSH2 0x239 PUSH2 0x404 JUMP JUMPDEST PUSH1 0x40 MLOAD PUSH2 0x246 SWAP2 SWAP1 PUSH2 0x55B JUMP JUMPDEST PUSH1 0x40 MLOAD DUP1 SWAP2 SUB SWAP1 RETURN JUMPDEST PUSH2 0x257 PUSH2 0x40A JUMP JUMPDEST PUSH1 0x40 MLOAD PUSH2 0x264 SWAP2 SWAP1 PUSH2 0x5B3 JUMP JUMPDEST PUSH1 0x40 MLOAD DUP1 SWAP2 SUB SWAP1 RETURN JUMPDEST PUSH2 0x275 PUSH2 0x42F JUMP JUMPDEST PUSH1 0x40 MLOAD PUSH2 0x282 SWAP2 SWAP1 PUSH2 0x55B JUMP JUMPDEST PUSH1 0x40 MLOAD DUP1 SWAP2 SUB SWAP1 RETURN JUMPDEST PUSH2 0x293 PUSH2 0x435 JUMP JUMPDEST PUSH1 0x40 MLOAD PUSH2 0x2A0 SWAP2 SWAP1 PUSH2 0x52A JUMP JUMPDEST PUSH1 0x40 MLOAD DUP1 SWAP2 SUB SWAP1 RETURN JUMPDEST PUSH2 0x2B1 PUSH2 0x43B JUMP JUMPDEST PUSH1 0x40 MLOAD PUSH2 0x2BE SWAP2 SWAP1 PUSH2 0x5E6 JUMP JUMPDEST PUSH1 0x40 MLOAD DUP1 SWAP2 SUB SWAP1 RETURN JUMPDEST PUSH2 0x2CF PUSH2 0x44C JUMP JUMPDEST PUSH1 0x40 MLOAD PUSH2 0x2DC SWAP2 SWAP1 PUSH2 0x61A JUMP JUMPDEST PUSH1 0x40 MLOAD DUP1 SWAP2 SUB SWAP1 RETURN JUMPDEST PUSH2 0x2ED PUSH2 0x45E JUMP JUMPDEST PUSH1 0x40 MLOAD PUSH2 0x2FA SWAP2 SWAP1 PUSH2 0x4F9 JUMP JUMPDEST PUSH1 0x40 MLOAD DUP1 SWAP2 SUB SWAP1 RETURN JUMPDEST PUSH2 0x30B PUSH2 0x470 JUMP JUMPDEST PUSH1 0x40 MLOAD PUSH2 0x318 SWAP2 SWAP1 PUSH2 0x4F9 JUMP JUMPDEST PUSH1 0x40 MLOAD DUP1 SWAP2 SUB SWAP1 RETURN JUMPDEST PUSH2 0x329 PUSH2 0x480 JUMP JUMPDEST PUSH1 0x40 MLOAD PUSH2 0x336 SWAP2 SWAP1 PUSH2 0x52A JUMP JUMPDEST PUSH1 0x40 MLOAD DUP1 SWAP2 SUB SWAP1 RETURN JUMPDEST PUSH2 0x347 PUSH2 0x486 JUMP JUMPDEST PUSH1 0x40 MLOAD PUSH2 0x354 SWAP2 SWAP1 PUSH2 0x55B JUMP JUMPDEST PUSH1 0x40 MLOAD DUP1 SWAP2 SUB SWAP1 RETURN JUMPDEST PUSH1 0xD PUSH0 SWAP1 SLOAD SWAP1 PUSH2 0x100 EXP SWAP1 DIV PUSH1 0xF8 SHL DUP2 JUMP JUMPDEST PUSH1 0x8 PUSH0 SWAP1 SLOAD SWAP1 PUSH2 0x100 EXP SWAP1 DIV PUSH1 0xF8 SHL DUP2 JUMP JUMPDEST PUSH1 0x9 PUSH1 0x14 SWAP1 SLOAD SWAP1 PUSH2 0x100 EXP SWAP1 DIV PUSH1 0xFF AND DUP2 JUMP JUMPDEST PUSH1 0x1 SLOAD DUP2 JUMP JUMPDEST PUSH1 0x4 SLOAD DUP2 JUMP JUMPDEST PUSH1 0x8 PUSH1 0x1 SWAP1 SLOAD SWAP1 PUSH2 0x100 EXP SWAP1 DIV PUSH1 0xF8 SHL DUP2 JUMP JUMPDEST PUSH1 0x8 PUSH1 0x2 SWAP1 SLOAD SWAP1 PUSH2 0x100 EXP SWAP1 DIV PUSH20 0xFFFFFFFFFFFFFFFFFFFFFFFFFFFFFFFFFFFFFFFF AND DUP2 JUMP JUMPDEST PUSH1 0xC SLOAD DUP2 JUMP JUMPDEST PUSH1 0x9 PUSH0 SWAP1 SLOAD SWAP1 PUSH2 0x100 EXP SWAP1 DIV PUSH20 0xFFFFFFFFFFFFFFFFFFFFFFFFFFFFFFFFFFFFFFFF AND DUP2 JUMP JUMPDEST PUSH1 0x7 SLOAD DUP2 JUMP JUMPDEST PUSH1 0xB PUSH0 SWAP1 SLOAD SWAP1 PUSH2 0x100 EXP SWAP1 DIV PUSH20 0xFFFFFFFFFFFFFFFFFFFFFFFFFFFFFFFFFFFFFFFF AND DUP2 JUMP JUMPDEST PUSH1 0x6 SLOAD DUP2 JUMP JUMPDEST PUSH1 0xA SLOAD DUP2 JUMP JUMPDEST PUSH1 0x3 PUSH0 SWAP1 SLOAD SWAP1 PUSH2 0x100 EXP SWAP1 DIV PUSH0 SIGNEXTEND DUP2 JUMP JUMPDEST PUSH0 PUSH1 0x2 SWAP1 SLOAD SWAP1 PUSH2 0x100 EXP SWAP1 DIV PUSH1 0xFF AND DUP2 JUMP JUMPDEST PUSH0 PUSH1 0x1 SWAP1 SLOAD SWAP1 PUSH2 0x100 EXP SWAP1 DIV PUSH1 0xFF AND DUP2 JUMP JUMPDEST PUSH0 DUP1 SLOAD SWAP1 PUSH2 0x100 EXP SWAP1 DIV PUSH1 0xFF AND DUP2 JUMP JUMPDEST PUSH1 0x2 SLOAD DUP2 JUMP JUMPDEST PUSH1 0x5 SLOAD DUP2 JUMP JUMPDEST PUSH0 PUSH32 0xFF00000000000000000000000000000000000000000000000000000000000000 DUP3 AND SWAP1 POP SWAP2 SWAP1 POP JUMP JUMPDEST PUSH2 0x4C0 DUP2 PUSH2 0x48C JUMP JUMPDEST DUP3 MSTORE POP POP JUMP JUMPDEST PUSH0 PUSH1 0x20 DUP3 ADD SWAP1 POP PUSH2 0x4D9 PUSH0 DUP4 ADD DUP5 PUSH2 0x4B7 JUMP JUMPDEST SWAP3 SWAP2 POP POP JUMP JUMPDEST PUSH0 DUP2 ISZERO ISZERO SWAP1 POP SWAP2 SWAP1 POP JUMP JUMPDEST PUSH2 0x4F3 DUP2 PUSH2 0x4DF JUMP JUMPDEST DUP3 MSTORE POP POP JUMP JUMPDEST PUSH0 PUSH1 0x20 DUP3 ADD SWAP1 POP PUSH2 0x50C PUSH0 DUP4 ADD DUP5 PUSH2 0x4EA JUMP JUMPDEST SWAP3 SWAP2 POP POP JUMP JUMPDEST PUSH0 DUP2 SWAP1 POP SWAP2 SWAP1 POP JUMP JUMPDEST PUSH2 0x524 DUP2 PUSH2 0x512 JUMP JUMPDEST DUP3 MSTORE POP POP JUMP JUMPDEST PUSH0 PUSH1 0x20 DUP3 ADD SWAP1 POP PUSH2 0x53D PUSH0 DUP4 ADD DUP5 PUSH2 0x51B JUMP JUMPDEST SWAP3 SWAP2 POP POP JUMP JUMPDEST PUSH0 DUP2 SWAP1 POP SWAP2 SWAP1 POP JUMP JUMPDEST PUSH2 0x555 DUP2 PUSH2 0x543 JUMP JUMPDEST DUP3 MSTORE POP POP JUMP JUMPDEST PUSH0 PUSH1 0x20 DUP3 ADD SWAP1 POP PUSH2 0x56E PUSH0 DUP4 ADD DUP5 PUSH2 0x54C JUMP JUMPDEST SWAP3 SWAP2 POP POP JUMP JUMPDEST PUSH0 PUSH20 0xFFFFFFFFFFFFFFFFFFFFFFFFFFFFFFFFFFFFFFFF DUP3 AND SWAP1 POP SWAP2 SWAP1 POP JUMP JUMPDEST PUSH0 PUSH2 0x59D DUP3 PUSH2 0x574 JUMP JUMPDEST SWAP1 POP SWAP2 SWAP1 POP JUMP JUMPDEST PUSH2 0x5AD DUP2 PUSH2 0x593 JUMP JUMPDEST DUP3 MSTORE POP POP JUMP JUMPDEST PUSH0 PUSH1 0x20 DUP3 ADD SWAP1 POP PUSH2 0x5C6 PUSH0 DUP4 ADD DUP5 PUSH2 0x5A4 JUMP JUMPDEST SWAP3 SWAP2 POP POP JUMP JUMPDEST PUSH0 DUP2 PUSH0 SIGNEXTEND SWAP1 POP SWAP2 SWAP1 POP JUMP JUMPDEST PUSH2 0x5E0 DUP2 PUSH2 0x5CC JUMP JUMPDEST DUP3 MSTORE POP POP JUMP JUMPDEST PUSH0 PUSH1 0x20 DUP3 ADD SWAP1 POP PUSH2 0x5F9 PUSH0 DUP4 ADD DUP5 PUSH2 0x5D7 JUMP JUMPDEST SWAP3 SWAP2 POP POP JUMP JUMPDEST PUSH0 PUSH1 0xFF DUP3 AND SWAP1 POP SWAP2 SWAP1 POP JUMP JUMPDEST PUSH2 0x614 DUP2 PUSH2 0x5FF JUMP JUMPDEST DUP3 MSTORE POP POP JUMP JUMPDEST PUSH0 PUSH1 0x20 DUP3 ADD SWAP1 POP PUSH2 0x62D PUSH0 DUP4 ADD DUP5 PUSH2 0x60B JUMP JUMPDEST SWAP3 SWAP2 POP POP JUMP INVALID LOG2 PUSH5 0x6970667358 0x22 SLT KECCAK256 CODECOPY CALLER PUSH5 0x83D8126EC4 ADDRESS 0x2B 0x24 PUSH13 0xB824157B65B26E2D054B40D28B PUSH27 0x6F3124171A5564736F6C6343000816003300000000000000000000 "
				},
				"gasEstimates": {
					"creation": {
						"codeDepositCost": "328200",
						"executionCost": "278768",
						"totalCost": "606968"
					},
					"external": {
						"a()": "2512",
						"addr()": "2619",
						"b()": "2562",
						"defaultaddress()": "2553",
						"defaultbool()": "2585",
						"defaultbytes()": "2490",
						"defaultint()": "2514",
						"hey()": "2529",
						"hy()": "2626",
						"i()": "2535",
						"i256()": "2448",
						"i8()": "2579",
						"maxInt()": "2448",
						"minInt()": "2492",
						"no()": "2560",
						"number()": "2514",
						"u()": "2513",
						"u256()": "2515",
						"u8()": "2538"
					}
				},
				"methodIdentifiers": {
					"a()": "0dbe671f",
					"addr()": "767800de",
					"b()": "4df7e3d0",
					"defaultaddress()": "7bb125a8",
					"defaultbool()": "2afc7417",
					"defaultbytes()": "098181b7",
					"defaultint()": "7082e1b5",
					"hey()": "bde2b573",
					"hy()": "57c602c4",
					"i()": "e5aa3d58",
					"i256()": "4c27fd62",
					"i8()": "921cda74",
					"maxInt()": "7a4c2571",
					"minInt()": "7e4e14cc",
					"no()": "b6c52ae8",
					"number()": "8381f58a",
					"u()": "c6a898c5",
					"u256()": "459b1acf",
					"u8()": "ab3a58a3"
				}
			},
			"storageLayout": {
				"storage": [
					{
						"astId": 3,
						"contract": "test/dataTypes.sol:DataTypes",
						"label": "hey",
						"offset": 0,
						"slot": "0",
						"type": "t_bool"
					},
					{
						"astId": 6,
						"contract": "test/dataTypes.sol:DataTypes",
						"label": "no",
						"offset": 1,
						"slot": "0",
						"type": "t_bool"
					},
					{
						"astId": 9,
						"contract": "test/dataTypes.sol:DataTypes",
						"label": "u8",
						"offset": 2,
						"slot": "0",
						"type": "t_uint8"
					},
					{
						"astId": 12,
						"contract": "test/dataTypes.sol:DataTypes",
						"label": "u256",
						"offset": 0,
						"slot": "1",
						"type": "t_uint256"
					},
					{
						"astId": 15,
						"contract": "test/dataTypes.sol:DataTypes",
						"label": "u",
						"offset": 0,
						"slot": "2",
						"type": "t_uint256"
					},
					{
						"astId": 19,
						"contract": "test/dataTypes.sol:DataTypes",
						"label": "i8",
						"offset": 0,
						"slot": "3",
						"type": "t_int8"
					},
					{
						"astId": 22,
						"contract": "test/dataTypes.sol:DataTypes",
						"label": "i256",
						"offset": 0,
						"slot": "4",
						"type": "t_int256"
					},
					{
						"astId": 26,
						"contract": "test/dataTypes.sol:DataTypes",
						"label": "i",
						"offset": 0,
						"slot": "5",
						"type": "t_int256"
					},
					{
						"astId": 33,
						"contract": "test/dataTypes.sol:DataTypes",
						"label": "minInt",
						"offset": 0,
						"slot": "6",
						"type": "t_int256"
					},
					{
						"astId": 40,
						"contract": "test/dataTypes.sol:DataTypes",
						"label": "maxInt",
						"offset": 0,
						"slot": "7",
						"type": "t_int256"
					},
					{
						"astId": 43,
						"contract": "test/dataTypes.sol:DataTypes",
						"label": "a",
						"offset": 0,
						"slot": "8",
						"type": "t_bytes1"
					},
					{
						"astId": 46,
						"contract": "test/dataTypes.sol:DataTypes",
						"label": "b",
						"offset": 1,
						"slot": "8",
						"type": "t_bytes1"
					},
					{
						"astId": 48,
						"contract": "test/dataTypes.sol:DataTypes",
						"label": "hy",
						"offset": 2,
						"slot": "8",
						"type": "t_address"
					},
					{
						"astId": 51,
						"contract": "test/dataTypes.sol:DataTypes",
						"label": "addr",
						"offset": 0,
						"slot": "9",
						"type": "t_address"
					},
					{
						"astId": 53,
						"contract": "test/dataTypes.sol:DataTypes",
						"label": "defaultbool",
						"offset": 20,
						"slot": "9",
						"type": "t_bool"
					},
					{
						"astId": 55,
						"contract": "test/dataTypes.sol:DataTypes",
						"label": "number",
						"offset": 0,
						"slot": "10",
						"type": "t_uint256"
					},
					{
						"astId": 57,
						"contract": "test/dataTypes.sol:DataTypes",
						"label": "defaultaddress",
						"offset": 0,
						"slot": "11",
						"type": "t_address"
					},
					{
						"astId": 59,
						"contract": "test/dataTypes.sol:DataTypes",
						"label": "defaultint",
						"offset": 0,
						"slot": "12",
						"type": "t_int256"
					},
					{
						"astId": 61,
						"contract": "test/dataTypes.sol:DataTypes",
						"label": "defaultbytes",
						"offset": 0,
						"slot": "13",
						"type": "t_bytes1"
					}
				],
				"types": {
					"t_address": {
						"encoding": "inplace",
						"label": "address",
						"numberOfBytes": "20"
					},
					"t_bool": {
						"encoding": "inplace",
						"label": "bool",
						"numberOfBytes": "1"
					},
					"t_bytes1": {
						"encoding": "inplace",
						"label": "bytes1",
						"numberOfBytes": "1"
					},
					"t_int256": {
						"encoding": "inplace",
						"label": "int256",
						"numberOfBytes": "32"
					},
					"t_int8": {
						"encoding": "inplace",
						"label": "int8",
						"numberOfBytes": "1"
					},
					"t_uint256": {
						"encoding": "inplace",
						"label": "uint256",
						"numberOfBytes": "32"
					},
					"t_uint8": {
						"encoding": "inplace",
						"label": "uint8",
						"numberOfBytes": "1"
					}
				}
			},
			"userdoc": {
				"kind": "user",
				"methods": {},
				"version": 1
			}
		}
	}
}